:100000005CC0000079C300009EC300007BC00000FC
:1000100079C0000077C0000075C0000073C0000008
:1000200071C000006FC000006DC000006BC0000018
:1000300069C0000067C0000065C0000063C0000028
:10004000B4C300005FC00000D4C1000004C20000BF
:1000500059C0000057C0000055C0000053C0000048
:1000600051C000004FC00000000000080002010065
:100070000003040700000000000000000102040863
:100080001020408001020408102001020408102002
:10009000040404040404040402020202020203032E
:1000A0000303030300000000250028002B000000CC
:1000B0000000240027002A00590211241FBECFEFA0
:1000C000D8E0DEBFCDBF11E0A0E0B1E0ECEEFAE099
:1000D00002C005900D92A033B107D9F721E0A0E34B
:1000E000B1E001C01D92A73DB207E1F710E0CAEBF5
:1000F000D0E003C02297FE01F3D4C83BD107D1F76B
:100100004AD3F2C47DCF64E071E081E391E055D23F
:100110009091300181E0911180E080933001089549
:1001200026E040E855E260E070E081E391E001D133
:1001300068E071E081E391E040D261E084E03DD489
:1001400062E083E03AD441E050E063E870E081E0AF
:10015000B3C2609130014AE050E081E391E096D271
:100160006091300184E062D468EE73E080E090E05A
:1001700089C3FC01818D228D90E0805C9F4F821BA2
:1001800091098F7399270895FC01918D828D98179D
:1001900031F0828DE80FF11D858D90E008958FEF8D
:1001A0009FEF0895FC01918D828D981761F0828DEB
:1001B000DF01A80FB11D5D968C91928D9F5F9F739B
:1001C000928F90E008958FEF9FEF089580E592E081
:1001D000892B41F080E090E0892B21F061D18111E1
:1001E0000C9400000895FC01848DDF01A80FB11D5F
:1001F000A35ABF4F2C91848D90E001968F7399275D
:10020000848FA689B7892C93A089B1898C91806449
:100210008C93938D848D981306C00288F389E02D0A
:1002200080818F7D80830895CF93DF93EC01888D4B
:100230008823C1F0EA89FB89808185FD05C0A889F2
:10024000B9898C9186FD0EC00FB607FCF5CF808171
:1002500085FFF2CFA889B9898C9185FFEDCFCE01BA
:10026000C2DFE8CFDF91CF910895CF92DF92FF9266
:100270000F931F93CF93DF931F92CDB7DEB76C011F
:1002800081E0D60158968C9358975B969C915B972A
:100290005C968C915C97981307C05096ED91FC91F9
:1002A0005197808185FD2DC0F601038D10E00F5F11
:1002B0001F4F0F731127F02EF601848DF81210C016
:1002C0000FB607FCF9CFD6015096ED91FC915197EE
:1002D000808185FFF1CFC601698385DF6981ECCF1D
:1002E000838DE80FF11DE35AFF4F6083D6015B96C3
:1002F0000C935B975296ED91FC91539780818062AD
:100300000CC0D6015696ED91FC915797608350969C
:10031000ED91FC91519780818064808381E090E031
:100320000F90DF91CF911F910F91FF90DF90CF90B1
:100330000895BF92CF92DF92EF92FF92CF93DF9317
:10034000EC016A017B01B22EE889F98982E08083A1
:10035000411581EE58076105710599F060E079E07B
:100360008DE390E0A701960197D32150310941090F
:1003700051095695479537952795211580E13807FE
:1003800090F0E889F989108260E874E88EE190E0E5
:10039000A701960181D32150310941095109569590
:1003A000479537952795EC85FD853083EE85FF854C
:1003B0002083188EEC89FD89B082EA89FB898081CF
:1003C00080618083EA89FB89808188608083EA89F3
:1003D000FB89808180688083EA89FB8980818F7DA9
:1003E0008083DF91CF91FF90EF90DF90CF90BF900F
:1003F00008951F920F920FB60F9211242F938F938F
:100400009F93EF93FF93E0914101F091420180812E
:10041000E0914701F091480182FD12C090818091E6
:100420004A018F5F8F7320914B01821751F0E09149
:100430004A01F0E0EF5CFE4F958F80934A0101C0C6
:100440008081FF91EF919F918F912F910F900FBE1F
:100450000F901F9018951F920F920FB60F921124B4
:100460002F933F934F935F936F937F938F939F93BC
:10047000AF93BF93EF93FF9381E391E0B4DEFF91DD
:10048000EF91BF91AF919F918F917F916F915F910C
:100490004F913F912F910F900FBE0F901F90189585
:1004A00081E391E066DE21E0892B09F420E0822FD0
:1004B0000895109234011092330188EE93E0A0E089
:1004C000B0E08093350190933601A0933701B0934B
:1004D000380182E191E0909332018093310185EC03
:1004E00090E090933E0180933D0184EC90E09093E6
:1004F000400180933F0180EC90E090934201809313
:10050000410181EC90E0909344018093430182EC9F
:1005100090E0909346018093450186EC90E09093A3
:1005200048018093470110924A0110924B011092AA
:100530004C0110924D010895CF92DF92EF92FF92FD
:100540000F931F93CF93DF937C016A01EB0100E0CF
:1005500010E00C151D0571F06991D701ED91FC912A
:100560000190F081E02DC7010995892B19F00F5FEB
:100570001F4FEFCFC801DF91CF911F910F91FF90D7
:10058000EF90DF90CF9008956115710581F0DB0148
:100590000D900020E9F7AD0141505109461B570B62
:1005A000DC01ED91FC910280F381E02D099480E063
:1005B00090E008956EE171E0E7CF0F931F93CF9322
:1005C000DF93EC01E1DF8C01CE01F4DF800F911F9E
:1005D000DF91CF911F910F9108958F929F92AF92CB
:1005E000BF92DF92EF92FF920F931F93CF93DF930F
:1005F000CDB7DEB7A1970FB6F894DEBF0FBECDBF63
:100600007C01F42FD52ECB0119A2223008F42AE068
:100610008E010F5D1F4F822E912CA12CB12C6F2FBC
:100620007D2DA501940138D2F22FD32ECA0101509D
:1006300011096A3014F4E0E301C0E7E3E60FD801E2
:10064000EC93232B242B252B51F7B801C7019CDFFA
:10065000A1960FB6F894DEBF0FBECDBFDF91CF914C
:100660001F910F91FF90EF90DF90BF90AF909F9000
:100670008F9008952115310541F4DC01ED91FC9135
:100680000190F081E02D642F0994A7CF0F931F9361
:10069000CF93DF93EC019A01462F50E060E070E0C9
:1006A000E9DF8C01CE0186DF800F911FDF91CF91B2
:1006B0001F910F91089508958230E8F4E82FF0E03B
:1006C000EE0FFF1FE050FF4F71836083813041F0D8
:1006D000809169008C7F842B80936900E89A08954B
:1006E00080916900440F551F440F551F837F842B51
:1006F00080936900E99A08951F920F920FB60F92A6
:1007000011242F933F934F935F936F937F938F9316
:100710009F93AF93BF93EF93FF93E0910001F0910C
:1007200001010995FF91EF91BF91AF919F918F9139
:100730007F916F915F914F913F912F910F900FBEDD
:100740000F901F9018951F920F920FB60F921124C1
:100750002F933F934F935F936F937F938F939F93C9
:10076000AF93BF93EF93FF93E0910201F0910301E8
:100770000995FF91EF91BF91AF919F918F917F91DB
:100780006F915F914F913F912F910F900FBE0F90FE
:100790001F9018950895ADD0FDDFC2DCC6EED0E005
:1007A000D8DC2097E9F312DDFBCF1F920F920FB632
:1007B0000F9211242F933F938F939F93AF93BF93E7
:1007C0008091CF019091D001A091D101B091D2013F
:1007D0003091CE0123E0230F2D3720F40196A11D87
:1007E000B11D05C026E8230F0296A11DB11D20935F
:1007F000CE018093CF019093D001A093D101B0930B
:10080000D2018091D3019091D401A091D501B091F2
:10081000D6010196A11DB11D8093D3019093D401FF
:10082000A093D501B093D601BF91AF919F918F91C5
:100830003F912F910F900FBE0F901F9018953FB7CB
:10084000F8948091D3019091D401A091D501B091F9
:10085000D60126B5A89B05C02F3F19F00196A11D12
:10086000B11D3FBF6627782F892F9A2F620F711D08
:10087000811D911D42E0660F771F881F991F4A95C1
:10088000D1F708958F929F92AF92BF92CF92DF924D
:10089000EF92FF926B017C01D2DF4B015C01C1142E
:1008A000D104E104F104E1F0F6D0C9DF6819790957
:1008B0008A099B09683E73408105910580F321E018
:1008C000C21AD108E108F10888EE880E83E0981E6C
:1008D000A11CB11CC114D104E104F10431F7DFCF34
:1008E000FF90EF90DF90CF90BF90AF909F908F9050
:1008F0000895789484B5826084BD84B5816084BD98
:1009000085B5826085BD85B5816085BDEEE6F0E088
:10091000808181608083E1E8F0E0108280818260E4
:100920008083808181608083E0E8F0E08081816065
:100930008083E1EBF0E0808184608083E0EBF0E095
:10094000808181608083EAE7F0E080818460808339
:1009500080818260808380818160808380818068E3
:1009600080831092C1000895833081F028F4813093
:1009700099F08230A1F008958730A9F08830B9F05D
:100980008430D1F4809180008F7D03C080918000FD
:100990008F7780938000089584B58F7702C084B5E7
:1009A0008F7D84BD08958091B0008F7703C08091C2
:1009B000B0008F7D8093B0000895CF93DF9390E0D7
:1009C000FC01E458FF4F2491FC01E057FF4F849154
:1009D000882349F190E0880F991FFC01E255FF4FF1
:1009E000A591B4918C559F4FFC01C591D4919FB7AF
:1009F000611108C0F8948C91209582238C93888192
:100A000082230AC0623051F4F8948C91322F3095D1
:100A100083238C938881822B888304C0F8948C91E3
:100A2000822B8C939FBFDF91CF9108950F931F93DB
:100A3000CF93DF931F92CDB7DEB7282F30E0F901B7
:100A4000E859FF4F8491F901E458FF4F1491F901DF
:100A5000E057FF4F04910023C1F0882319F0698308
:100A600083DF6981E02FF0E0EE0FFF1FEC55FF4FB1
:100A7000A591B4919FB7F8948C91611103C0109522
:100A8000812301C0812B8C939FBF0F90DF91CF9169
:100A90001F910F9108950895A1E21A2EAA1BBB1B66
:100AA000FD010DC0AA1FBB1FEE1FFF1FA217B3073A
:100AB000E407F50720F0A21BB30BE40BF50B661F50
:100AC000771F881F991F1A9469F760957095809514
:100AD00090959B01AC01BD01CF010895EE0FFF1F62
:0C0AE0000590F491E02D0994F894FFCFEC
:100AEC005B035B0349525100737461727400000024
:100AFC00000035019C02B900D200C40014010D0A9B
:100B0C00006E616E00696E66006F7666002E0000E6
:00000001FF
