:100000005CC000007FC000007DC000007BC000001D
:1000100079C0000077C0000075C0000073C0000008
:1000200071C000006FC000006DC000006BC0000018
:1000300069C0000067C0000065C0000063C0000028
:10004000AFC200005FC00000C0C10000F0C10000EE
:1000500059C0000057C0000055C0000053C0000048
:1000600051C000004FC00000000000080002010065
:100070000003040700000000000000000102040863
:100080001020408001020408102001020408102002
:10009000040404040404040402020202020203032E
:1000A0000303030300000000250028002B000000CC
:1000B0000000240027002A003C0211241FBECFEFBD
:1000C000D8E0DEBFCDBF11E0A0E0B1E0ECE6F8E0A3
:1000D00002C005900D92AA32B107D9F721E0AAE239
:1000E000B1E001C01D92A03DB207E1F710E0CAEBFC
:1000F000D0E003C02297FE01B3D3C83BD107D1F7AC
:100100002ED0B2C37DCF61E08091000116D326E0EE
:1001100040E855E260E070E08AE291E0F6C0CF93FB
:10012000DF93C0E0D1E061E0888140D362E071E01C
:100130008AE291E025D268EE73E080E090E09DD203
:1001400065E071E08AE291E01BD260E088812ED305
:1001500068EE73E080E090E0DF91CF918EC2D3DF54
:10016000DEDFFECFFC01818D228D90E0805C9F4F11
:10017000821B91098F7399270895FC01918D828DBF
:10018000981731F0828DE80FF11D858D90E008956C
:100190008FEF9FEF0895FC01918D828D981761F08C
:1001A000828DDF01A80FB11D5D968C91928D9F5FAE
:1001B0009F73928F90E008958FEF9FEF0895FC0159
:1001C000848DDF01A80FB11DA35ABF4F2C91848DE0
:1001D00090E001968F739927848FA689B7892C9315
:1001E000A089B1898C9180648C93938D848D9813B0
:1001F00006C00288F389E02D80818F7D8083089579
:10020000CF93DF93EC01888D8823C1F0EA89FB89C5
:10021000808185FD05C0A889B9898C9186FD0EC0B5
:100220000FB607FCF5CF808185FFF2CFA889B98989
:100230008C9185FFEDCFCE01C2DFE8CFDF91CF916A
:100240000895CF92DF92FF920F931F93CF93DF9386
:100250001F92CDB7DEB76C0181E0D60158968C9322
:1002600058975B969C915B975C968C915C979813E2
:1002700007C05096ED91FC915197808185FD2DC06E
:10028000F601038D10E00F5F1F4F0F731127F02E43
:10029000F601848DF81210C00FB607FCF9CFD60115
:1002A0005096ED91FC915197808185FFF1CFC60169
:1002B000698385DF6981ECCF838DE80FF11DE35AF7
:1002C000FF4F6083D6015B960C935B975296ED913E
:1002D000FC915397808180620CC0D6015696ED91B7
:1002E000FC91579760835096ED91FC9151978081D6
:1002F0008064808381E090E00F90DF91CF911F9127
:100300000F91FF90DF90CF900895BF92CF92DF9230
:10031000EF92FF92CF93DF93EC016A017B01B22E43
:10032000E889F98982E08083411581EE58076105EB
:10033000710599F060E079E08DE390E0A701960106
:100340006BD221503109410951095695479537958E
:100350002795211580E1380790F0E889F989108206
:1003600060E874E88EE190E0A701960155D2215033
:100370003109410951095695479537952795EC85DF
:10038000FD853083EE85FF852083188EEC89FD89FD
:10039000B082EA89FB89808180618083EA89FB8958
:1003A000808188608083EA89FB898081806880837E
:1003B000EA89FB8980818F7D8083DF91CF91FF90D7
:1003C000EF90DF90CF90BF9008951F920F920FB6DD
:1003D0000F9211242F938F939F93EF93FF93E091AC
:1003E0003A01F0913B018081E0914001F09141019F
:1003F00082FD12C09081809143018F5F8F732091A5
:100400004401821751F0E0914301F0E0E65DFE4FB8
:10041000958F8093430101C08081FF91EF919F915F
:100420008F912F910F900FBE0F901F9018951F92D4
:100430000F920FB60F9211242F933F934F935F9318
:100440006F937F938F939F93AF93BF93EF93FF939C
:100450008AE291E0B4DEFF91EF91BF91AF919F915D
:100460008F917F916F915F914F913F912F910F905D
:100470000FBE0F901F90189510922D0110922C0115
:1004800088EE93E0A0E0B0E080932E0190932F01DE
:10049000A0933001B09331018DE091E090932B0156
:1004A00080932A0185EC90E0909337018093360188
:1004B00084EC90E0909339018093380180EC90E0D7
:1004C00090933B0180933A0181EC90E090933D0141
:1004D00080933C0182EC90E090933F0180933E0139
:1004E00086EC90E09093410180934001109243018B
:1004F0001092440110924501109246010895CF9246
:10050000DF92EF92FF920F931F93CF93DF937C01C3
:100510006A01EB0100E010E00C151D0571F0699116
:10052000D701ED91FC910190F081E02DC701099573
:10053000892B19F00F5F1F4FEFCFC801DF91CF91CB
:100540001F910F91FF90EF90DF90CF90089561156C
:10055000710581F0DB010D900020E9F7AD014150FC
:100560005109461B570BDC01ED91FC910280F38190
:10057000E02D099480E090E0089569E171E0E7CF13
:100580000F931F93CF93DF93EC01E1DF8C01CE013A
:10059000F4DF800F911FDF91CF911F910F9108958C
:1005A0001F920F920FB60F9211242F933F938F93A8
:1005B0009F93AF93BF938091C8019091C901A0917F
:1005C000CA01B091CB013091C70123E0230F2D3731
:1005D00020F40196A11DB11D05C026E8230F029647
:1005E000A11DB11D2093C7018093C8019093C9013B
:1005F000A093CA01B093CB018091CC019091CD0121
:10060000A091CE01B091CF010196A11DB11D8093A3
:10061000CC019093CD01A093CE01B093CF01BF91B7
:10062000AF919F918F913F912F910F900FBE0F909F
:100630001F9018953FB7F8948091CC019091CD010F
:10064000A091CE01B091CF0126B5A89B05C02F3F48
:1006500019F00196A11DB11D3FBF6627782F892F84
:100660009A2F620F711D811D911D42E0660F771F49
:10067000881F991F4A95D1F708958F929F92AF9244
:10068000BF92CF92DF92EF92FF926B017C01D2DF9B
:100690004B015C01C114D104E104F104E1F0BBD0D1
:1006A000C9DF681979098A099B09683E7340810589
:1006B000910580F321E0C21AD108E108F10888EE23
:1006C000880E83E0981EA11CB11CC114D104E10462
:1006D000F10431F7DFCFFF90EF90DF90CF90BF9024
:1006E000AF909F908F900895833081F028F48130EF
:1006F00099F08230A1F008958730A9F08830B9F0E0
:100700008430D1F4809180008F7D03C0809180007F
:100710008F7780938000089584B58F7702C084B569
:100720008F7D84BD08958091B0008F7703C0809144
:10073000B0008F7D8093B0000895CF93DF9390E059
:10074000FC01E458FF4F2491FC01E057FF4F8491D6
:10075000882349F190E0880F991FFC01E255FF4F73
:10076000A591B4918C559F4FFC01C591D4919FB731
:10077000611108C0F8948C91209582238C93888114
:1007800082230AC0623051F4F8948C91322F309554
:1007900083238C938881822B888304C0F8948C9166
:1007A000822B8C939FBFDF91CF9108950F931F935E
:1007B000CF93DF931F92CDB7DEB7282F30E0F9013A
:1007C000E859FF4F8491F901E458FF4F1491F90162
:1007D000E057FF4F04910023C1F0882319F069838B
:1007E00083DF6981E02FF0E0EE0FFF1FEC55FF4F34
:1007F000A591B4919FB7F8948C91611103C01095A5
:10080000812301C0812B8C939FBF0F90DF91CF91EB
:100810001F910F9108950895A1E21A2EAA1BBB1BE8
:10082000FD010DC0AA1FBB1FEE1FFF1FA217B307BC
:10083000E407F50720F0A21BB30BE40BF50B661FD2
:10084000771F881F991F1A9469F760957095809596
:1008500090959B01AC01BD01CF010895EE0FFF1FE4
:0C0860000590F491E02D0994F894FFCF6E
:10086C0004006F6E006F6666000000000021017FBF
:10087C0002B200CB00BD0000010D0A006E616E00DB
:0A088C00696E66006F7666002E00AC
:00000001FF
